:020000040800F2
:10000000000001201107000891060008970600086B
:100010009D060008A3060008A906000800000000CD
:10002000000000000000000000000000C1440008C3
:10003000AF0600080000000011470008BD060008D8
:1000400061070008610700086107000861070008F0
:1000500061070008610700086107000861070008E0
:1000600061070008610700086107000861070008D0
:1000700061070008610700086107000861070008C0
:1000800061070008610700086107000861070008B0
:1000900061070008610700086107000861070008A0
:1000A0006107000861070008610700086107000890
:1000B0006107000861070008610700086107000880
:1000C0006107000861070008610700086107000870
:1000D0006107000861070008D906000861070008E9
:1000E0006107000861070008610700086107000850
:1000F0006107000861070008610700086107000840
:10010000610700080000000000000000610700080F
:10011000610700086107000861070008610700081F
:10012000610700086107000861070008610700080F
:1001300061070008610700080000000000000000DF
:10014000610700086107000861070008000000005F
:10015000000000000000000000000000000000009F
:1001600061070008610700086107000861070008CF
:1001700061070008610700086107000861070008BF
:10018000610700086107000800000000000000008F
:0401900061070008FB
:1001A00010B5054C237833B9044B13B10448AFF3B1
:1001B00000800123237010BD10000020000000000B
:1001C000244C000808B5034B1BB103490348AFF3A7
:1001D000008008BD0000000014000020244C00082E
:1001E00080B400AF00BFBD465DF8047B704780B4AB
:1001F00000AF00BFBD465DF8047B704780B400AF20
:1002000000BFBD465DF8047B704780B400AF00BFFF
:10021000BD465DF8047B704780B400AF00BFBD46AB
:100220005DF8047B704780B500AF20214FF090400F
:1002300000F028FE00BF80BD80B485B000AFF8603C
:10024000B9607A60FB68074A1A60BB68064A1A60A0
:100250007B6880221A6000BF1437BD465DF8047BBE
:10026000704700BF2C00002080000020B0B58EB089
:1002700000AF00F077FA00F0C9F800F031F800F0B4
:1002800095F8134B07F11C041D460FCD0FC495E8DC
:10029000070084E8070007F11C030021184603F05B
:1002A00059FA03460B4A13600B4B3C461D460FCDD3
:1002B0000FC495E8070084E807003B460021184674
:1002C00003F048FA0346054A136003F03CFAFEE7E0
:1002D000484C000808030020704C00080C03002064
:1002E00080B58AB000AF07F1140300221A605A608B
:1002F0009A60DA601A612B4B5B692A4A43F4002347
:100300005361284B5B6903F400233B613B69254B38
:100310005B69244A43F480035361224B5B6903F415
:100320008003FB60FB681F4B5B691E4A43F400338C
:1003300053611C4B5B6903F40033BB60BB68194B12
:100340005B69184A43F480235361164B5B6903F4DD
:1003500080237B607B68002220214FF0904000F0DA
:1003600079FD4FF400537B614FF40413BB6100230C
:10037000FB6107F1140319460B4800F0E1FB202351
:100380007B610123BB610023FB6100233B6207F11A
:10039000140319464FF0904000F0D2FB00BF2837FD
:1003A000BD4680BD001002400008004880B500AF87
:1003B000144B154A1A60134B4FF416525A60114BE6
:1003C00000229A600F4B0022DA600E4B00221A6165
:1003D0000C4B0C225A610B4B00229A61094B0022F4
:1003E000DA61084B00221A62064B00225A62054865
:1003F00002F00AFA0346002B01D000F0D1F800BF4A
:1004000080BD00BF800200200044004080B5A6B03F
:1004100000AF07F1700328220021184604F0D6FB34
:1004200007F15C0300221A605A609A60DA601A6170
:100430003B1D58220021184604F0C8FB02233B67ED
:100440000123FB671023C7F880300223C7F88830E8
:100450004FF40043C7F88C304FF4E013C7F89030E6
:100460000023C7F8943007F17003184600F024FD0C
:100470000346002B01D000F093F80F23FB65022305
:100480003B6600237B664FF48063BB660023FB66FC
:1004900007F15C030221184601F062FD0346002BC0
:1004A00001D000F07DF802237B6000233B613B1DFF
:1004B000184601F08BFF0346002B01D000F070F8C6
:1004C00000BF9837BD4680BD80B582B000AF786070
:1004D000012003F08BF9FBE780B584B000AF7860B2
:1004E0000023FB60FB680133FB60FFF779FEF968CE
:1004F000284B83FB01235A10CB17D21A13469B00BB
:100500001344CA1A002A01D1FFF771FEF968214B82
:1005100083FB01239A10CB17D21A13469B00134476
:100520005B00CA1A002A01D1FFF768FEFA681A4B6D
:1005300083FB02135911D317CB1A642101FB03F378
:10054000D31A002B01D1FFF760FEFA68134B83FB2F
:1005500002135911D317CB1A4FF4FA7101FB03F3AD
:10056000D31A002B01D1FFF757FEFA680B4B83FB20
:1005700002139911D317CB1A4FF47A7101FB03F3CD
:10058000D31A002B01D1FFF74EFE012003F02EF904
:10059000A6E700BF676666661F85EB51D34D621004
:1005A00080B400AF72B600BFFEE7000080B582B035
:1005B00000AF114B9B69104A43F0010393610E4B4E
:1005C0009B6903F001037B607B680B4BDB690A4A84
:1005D00043F08053D361084BDB6903F080533B60E9
:1005E0003B6800220F216FF0010000F0FCF900BF12
:1005F0000837BD4680BD00BF0010024080B58AB0FC
:1006000000AF786007F1140300221A605A609A6004
:10061000DA601A617B681B681B4A934230D11B4B1E
:10062000DB691A4A43F40033D361184BDB6903F4E6
:1006300000333B613B69154B5B69144A43F400335B
:100640005361124B5B6903F40033FB60FB680C23BE
:100650007B610223BB610023FB6100233B62072314
:100660007B6207F1140319464FF0904000F068FADE
:1006700000220521262000F0B6F9262000F0CFF94F
:1006800000BF2837BD4680BD004400400010024036
:1006900080B400AFFEE780B400AFFEE780B400AFE7
:1006A000FEE780B400AFFEE780B400AFFEE780B4A1
:1006B00000AF00BFBD465DF8047B704780B500AF5A
:1006C00000F096F803F018FE0346012B01D004F069
:1006D00053F800BF80BD000080B500AF024802F0B3
:1006E000E1F800BF80BD00BF8002002080B400AFF1
:1006F000064BD3F88830054A43F47003C2F88830BB
:1007000000BFBD465DF8047B704700BF00ED00E010
:10071000DFF834D0FFF7EAFF0C480D490D4A0023FB
:1007200002E0D458C4500433C4188C42F9D30A4AA6
:100730000A4C002301E013600432A242FBD304F010
:100740004DFAFFF793FDFEE70000012000000020B6
:1007500010000020D84C000810000020601000207D
:10076000FEE7000080B500AF084B1B68074A43F066
:1007700010031360032000F02BF90F2000F008F89D
:10078000FFF714FF0023184680BD00BF0020024081
:1007900080B582B000AF7860124B1A68124B1B789C
:1007A00019464FF47A73B3FBF1F3B2FBF3F3184637
:1007B00000F043F90346002B01D001230EE07B68D3
:1007C0000F2B0AD8002279684FF0FF3000F00BF9A8
:1007D000064A7B681360002300E0012318460837AF
:1007E000BD4680BD0000002008000020040000205D
:1007F00080B400AF064B1B781A46064B1B681344A7
:10080000044A136000BFBD465DF8047B704700BF1B
:10081000080000201003002080B400AF034B1B68C9
:100820001846BD465DF8047B704700BF10030020EA
:1008300080B485B000AF78607B6803F00703FB608D
:100840000C4BDB68BB60BA684FF6FF031340BB601C
:10085000FB681A02BB68134343F0BF6343F40033E1
:10086000BB60044ABB68D36000BF1437BD465DF867
:10087000047B704700ED00E080B400AF044BDB6800
:100880001B0A03F007031846BD465DF8047B70475A
:1008900000ED00E080B483B000AF0346FB7197F930
:1008A0000730002B0BDBFB7903F01F02074997F998
:1008B00007305B09012000FA02F241F8232000BF53
:1008C0000C37BD465DF8047B704700BF00E100E0D7
:1008D00080B483B000AF03463960FB7197F90730ED
:1008E000002B0ADB3B68DAB20C4997F9073012019A
:1008F000D2B20B4483F800230AE03B68DAB208491D
:10090000FB7903F00F03043B1201D2B20B441A76B9
:1009100000BF0C37BD465DF8047B704700E100E086
:1009200000ED00E080B489B000AFF860B9607A6093
:10093000FB6803F00703FB61FB69C3F10703042BAA
:1009400028BF0423BB61FB690433062B02D9FB6972
:10095000033B00E000237B614FF0FF32BB6902FAEA
:1009600003F3DA43BB681A407B699A404FF0FF31CA
:100970007B6901FA03F3D9437B680B4013431846A4
:100980002437BD465DF8047B7047000080B582B017
:1009900000AF78607B68013BB3F1807F01D3012316
:1009A0000FE00A4A7B68013B53600F214FF0FF3094
:1009B000FFF78EFF054B00229A60044B07221A6056
:1009C000002318460837BD4680BD00BF10E000E098
:1009D00080B582B000AF78607868FFF729FF00BF6C
:1009E0000837BD4680BD80B586B000AF0346B9600C
:1009F0007A60FB7300237B61FFF73EFF78617A68C2
:100A0000B9687869FFF78EFF024697F90F301146F3
:100A10001846FFF75DFF00BF1837BD4680BD80B5A3
:100A200082B000AF0346FB7197F907301846FFF715
:100A300031FF00BF0837BD4680BD80B582B000AF32
:100A400078607868FFF7A2FF034618460837BD466E
:100A500080BD80B483B000AF78607B6893F82130AC
:100A6000022B08D07B6804229A637B68002283F8FB
:100A70002020012320E07B681B681A687B681B68C4
:100A800022F00E021A607B681B681A687B681B687C
:100A900022F001021A607B681A6C7B68DB6B012113
:100AA00001FA02F25A607B68012283F821207B68F8
:100AB000002283F82020002318460C37BD465DF83D
:100AC000047B704780B584B000AF78600023FB736F
:100AD0007B6893F82130022B05D07B6804229A634F
:100AE0000123FB7327E07B681B681A687B681B681F
:100AF00022F00E021A607B681B681A687B681B680C
:100B000022F001021A607B681A6C7B68DB6B0121A2
:100B100001FA02F25A607B68012283F821207B6887
:100B2000002283F820207B685B6B002B03D07B685E
:100B30005B6B78689847FB7B18461037BD4680BDD5
:100B400080B487B000AF7860396000237B6160E1DA
:100B50003B681A6801217B6901FA03F31340FB60CB
:100B6000FB68002B00F052813B685B6803F00303D5
:100B7000012B05D03B685B6803F00303022B30D1E7
:100B80007B689B683B617B695B00032202FA03F38D
:100B9000DB433A6913403B613B68DA687B695B0081
:100BA00002FA03F33A6913433B617B683A699A603E
:100BB0007B685B683B6101227B6902FA03F3DB43DC
:100BC0003A6913403B613B685B681B0903F0010213
:100BD0007B6902FA03F33A6913433B617B683A6924
:100BE0005A603B685B6803F00303032B17D07B68F4
:100BF000DB683B617B695B00032202FA03F3DB43A2
:100C00003A6913403B613B689A687B695B0002FA72
:100C100003F33A6913433B617B683A69DA603B68E6
:100C20005B6803F00303022B23D17B69DA087B683E
:100C3000083253F822303B617B6903F007039B00C5
:100C40000F2202FA03F3DB433A6913403B613B682E
:100C50001A697B6903F007039B0002FA03F33A6900
:100C600013433B617B69DA087B680832396943F8D2
:100C700022107B681B683B617B695B00032202FAE0
:100C800003F3DB433A6913403B613B685B6803F065
:100C900003027B695B0002FA03F33A6913433B6189
:100CA0007B683A691A603B685B6803F44033002B49
:100CB00000F0AC805E4B9B695D4A43F00103936199
:100CC0005B4B9B6903F00103BB60BB68594A7B69BE
:100CD0009B08023352F823303B617B6903F0030326
:100CE0009B000F2202FA03F3DB433A6913403B6196
:100CF0007B68B3F1904F25D07B684F4A93421FD059
:100D00007B684E4A934219D07B684D4A934213D078
:100D10007B684C4A93420DD07B684B4A934207D084
:100D20007B684A4A934201D106230CE007230AE07C
:100D3000052308E0042306E0032304E0022302E085
:100D4000012300E000237A6902F00302920093403D
:100D50003A6913433B6137497B699B0802333A691F
:100D600041F823203A4B9B683B61FB68DB433A69BF
:100D700013403B613B685B6803F48013002B03D096
:100D80003A69FB6813433B61314A3B699360304BDE
:100D9000DB683B61FB68DB433A6913403B613B68BE
:100DA0005B6803F40013002B03D03A69FB6813431C
:100DB0003B61274A3B69D360254B5B683B61FB681D
:100DC000DB433A6913403B613B685B6803F40033E3
:100DD000002B03D03A69FB6813433B611C4A3B6913
:100DE00053601B4B1B683B61FB68DB433A69134054
:100DF0003B613B685B6803F48033002B03D03A69A6
:100E0000FB6813433B61124A3B6913607B69013302
:100E10007B613B681A687B6922FA03F3002B7FF43D
:100E200097AE00BF00BF1C37BD465DF8047B70471E
:100E30000010024000000140000400480008004883
:100E4000000C00480010004800140048001800483A
:100E50000004014080B483B000AF78600B467B8013
:100E600013467B707B78002B03D07A887B689A616D
:100E700002E07A887B689A6200BF0C37BD465DF855
:100E8000047B704780B485B000AF78600B467B80F0
:100E90007B685B69FB607A88FB6813401A04FB6817
:100EA000D9437B880B401A437B689A6100BF143793
:100EB000BD465DF8047B704780B5ADF5027D00AF9F
:100EC00007F50273A3F50173186007F50273A3F524
:100ED00001731B68002B02D1012301F03AB807F51A
:100EE0000273A3F501731B681B6803F00103002B59
:100EF00000F06F81B54B5B6803F00C03042B0CD042
:100F0000B24B5B6803F00C03082B5CD1AF4B5B6802
:100F100003F4C033B3F5803F55D14FF40033C7F825
:100F2000F431D7F8F43193FAA3F3C7F8F031D7F8D6
:100F3000F031B3FA83F3DBB25B09DBB243F00103B8
:100F4000DBB2012B02D1A14B1B6815E04FF400333B
:100F5000C7F8EC31D7F8EC3193FAA3F3C7F8E831CE
:100F60004FF40033C7F8E431D7F8E43193FAA3F330
:100F7000C7F8E031954B5B6A4FF40032C7F8DC21CB
:100F8000D7F8DC2192FAA2F2C7F8D821D7F8D821F5
:100F9000B2FA82F2D2B242F02002D2B202F01F02C2
:100FA000012101FA02F21340002B00F0118107F534
:100FB0000273A3F501731B685B68002B40F0088186
:100FC000012300F0C6BF07F50273A3F501731B6888
:100FD0005B68B3F5803F06D17C4B1B687B4A43F4CA
:100FE0008033136036E007F50273A3F501731B68C5
:100FF0005B68002B0CD1754B1B68744A23F480335B
:101000001360724B1B68714A23F48023136021E044
:1010100007F50273A3F501731B685B68B3F5A02F96
:101020000CD16A4B1B68694A43F480231360674BF9
:101030001B68664A43F4803313600BE0634B1B6804
:10104000624A23F480331360604B1B685F4A23F4C9
:101050008023136007F50273A3F501731B685B68B7
:10106000002B59D0FFF7D8FBC7F800020AE0FFF7C2
:10107000D3FB0246D7F80032D31A642B02D90323DC
:1010800000F067BF4FF40033C7F8D431D7F8D4313C
:1010900093FAA3F3C7F8D031D7F8D031B3FA83F37A
:1010A000DBB25B09DBB243F00103DBB2012B02D1FF
:1010B000464B1B6815E04FF40033C7F8CC31D7F826
:1010C000CC3193FAA3F3C7F8C8314FF40033C7F813
:1010D000C431D7F8C43193FAA3F3C7F8C0313B4BFE
:1010E0005B6A4FF40032C7F8BC21D7F8BC2192FAF2
:1010F000A2F2C7F8B821D7F8B821B2FA82F2D2B278
:1011000042F02002D2B202F01F02012101FA02F2E3
:101110001340002BABD05CE0FFF77EFBC7F800026A
:101120000AE0FFF779FB0246D7F80032D31A642BA6
:1011300002D9032300F00DBF4FF40033C7F8B431D8
:10114000D7F8B43193FAA3F3C7F8B031D7F8B03178
:10115000B3FA83F3DBB25B09DBB243F00103DBB22A
:10116000012B02D1194B1B6815E04FF40033C7F86F
:10117000AC31D7F8AC3193FAA3F3C7F8A8314FF4E8
:101180000033C7F8A431D7F8A43193FAA3F3C7F812
:10119000A0310E4B5B6A4FF40032C7F89C21D7F8A0
:1011A0009C2192FAA2F2C7F89821D7F89821B2FAB6
:1011B00082F2D2B242F02002D2B202F01F0201212A
:1011C00001FA02F21340002BABD102E00010024002
:1011D00000BF07F50273A3F501731B681B6803F0DA
:1011E0000203002B00F07F81A74B5B6803F00C0328
:1011F000002B0CD0A44B5B6803F00C03082B73D1BD
:10120000A14B5B6803F4C033B3F5004F6CD10223EC
:10121000C7F89431D7F8943193FAA3F3C7F8903113
:10122000D7F89031B3FA83F3DBB25B09DBB243F05A
:101230000103DBB2012B02D1934B1B6813E00223A5
:10124000C7F88C31D7F88C3193FAA3F3C7F88831FB
:101250000223C7F88431D7F8843193FAA3F3C7F88F
:101260008031894B5B6A0222C7F87C21D7F87C2148
:1012700092FAA2F2C7F87821D7F87821B2FA82F26E
:10128000D2B242F02002D2B202F01F02012101FAD2
:1012900002F21340002B0AD007F50273A3F5017385
:1012A0001B68DB68012B02D0012300F052BE764B95
:1012B0001B6823F0F80207F50273A3F501731B689E
:1012C0001B69F821C7F87411D7F8741191FAA1F1CC
:1012D000C7F87011D7F87011B1FA81F1C9B28B401B
:1012E000694913430B60FEE007F50273A3F5017330
:1012F0001B68DB68002B00F088800123C7F86C3185
:10130000D7F86C3193FAA3F3C7F86831D7F868318E
:10131000B3FA83F3DBB203F1845303F584139B0028
:101320001A4601231360FFF777FAC7F800020AE0B4
:10133000FFF772FA0246D7F80032D31A022B02D90D
:10134000032300F006BE0223C7F86431D7F86431E6
:1013500093FAA3F3C7F86031D7F86031B3FA83F397
:10136000DBB25B09DBB243F00103DBB2012B02D13C
:10137000454B1B6813E00223C7F85C31D7F85C319A
:1013800093FAA3F3C7F858310223C7F85431D7F8BA
:10139000543193FAA3F3C7F850313B4B5B6A0222F6
:1013A000C7F84C21D7F84C2192FAA2F2C7F848218D
:1013B000D7F84821B2FA82F2D2B242F02002D2B279
:1013C00002F01F02012101FA02F21340002BAFD0FC
:1013D0002D4B1B6823F0F80207F50273A3F5017388
:1013E0001B681B69F821C7F84411D7F8441191FA1A
:1013F000A1F1C7F84011D7F84011B1FA81F1C9B293
:101400008B40214913430B606DE00123C7F83C3149
:10141000D7F83C3193FAA3F3C7F83831D7F838310D
:10142000B3FA83F3DBB203F1845303F584139B0017
:101430001A4600231360FFF7EFF9C7F800020AE02D
:10144000FFF7EAF90246D7F80032D31A022B02D985
:10145000032300F07EBD0223C7F83431D7F83431BE
:1014600093FAA3F3C7F83031D7F83031B3FA83F3E6
:10147000DBB25B09DBB243F00103DBB2012B05D128
:10148000014B1B6816E000BF001002400223C7F8A2
:101490002C31D7F82C3193FAA3F3C7F82831022363
:1014A000C7F82431D7F8243193FAA3F3C7F82031D1
:1014B000BF4B5B6A0222C7F81C21D7F81C2192FAA5
:1014C000A2F2C7F81821D7F81821B2FA82F2D2B2E4
:1014D00042F02002D2B202F01F02012101FA02F210
:1014E0001340002BACD107F50273A3F501731B6801
:1014F0001B6803F00803002B00F0138107F502734B
:10150000A3F501731B685B69002B7CD00123C7F82E
:101510001431D7F8143193FAA3F3C7F81031D7F880
:101520001031B3FA83F3DBB21A46A24B13449B008B
:101530001A4601231360FFF76FF9C7F800020AE0AB
:10154000FFF76AF90246D7F80032D31A022B02D904
:10155000032300F0FEBC0223C7F80C31D7F80C318E
:1015600093FAA3F207F50273A3F580731A6007F5E7
:101570000273A3F5827302221A6007F50273A3F5C2
:1015800082731B6893FAA3F207F50273A3F58473C1
:101590001A6007F50273A3F5867302221A6007F535
:1015A0000273A3F586731B6893FAA3F207F502731F
:1015B000A3F588731A607E4B5A6A07F50273A3F588
:1015C0008A730221196007F50273A3F58A731B68F9
:1015D00093FAA3F107F50273A3F58C73196007F56D
:1015E0000273A3F58C731B68B3FA83F3DBB243F089
:1015F0006003DBB203F01F03012101FA03F3134080
:10160000002B9DD08DE007F50273A3F58E730122A8
:101610001A6007F50273A3F58E731B6893FAA3F2A1
:1016200007F50273A3F590731A6007F50273A3F52B
:1016300090731B68B3FA83F3DBB21A465D4B134415
:101640009B001A4600231360FFF7E6F8C7F8000274
:101650000AE0FFF7E1F80246D7F80032D31A022B6E
:1016600002D9032300F075BC07F50273A3F592734A
:1016700002221A6007F50273A3F592731B6893FAAE
:10168000A3F207F50273A3F594731A6007F50273CA
:10169000A3F5967302221A6007F50273A3F59673F9
:1016A0001B6893FAA3F207F50273A3F598731A6007
:1016B00007F50273A3F59A7302221A6007F5027305
:1016C000A3F59A731B6893FAA3F207F50273A3F5C7
:1016D0009C731A60364B5A6A07F50273A3F59E7322
:1016E0000221196007F50273A3F59E731B6893FA34
:1016F000A3F107F50273A3F5A073196007F5027350
:10170000A3F5A0731B68B3FA83F3DBB243F0600365
:10171000DBB203F01F03012101FA03F31340002B96
:1017200097D107F50273A3F501731B681B6803F0DB
:101730000403002B00F0A581002387F807321C4B1F
:10174000DB6903F08053002B16D1194BDB69184A73
:1017500043F08053D361164BDB6903F0805207F5E9
:101760000273A3F5FE731A6007F50273A3F5FE7307
:101770001B68012387F807320F4B1B6803F4807343
:10178000002B21D10C4B1B680B4A43F48073136070
:10179000FFF742F8C7F8000210E0FFF73DF80246F5
:1017A000D7F80032D31A642B08D90323D1E300BF42
:1017B0000010024020819010007000408D4B1B688B
:1017C00003F48073002BE8D007F50273A3F50173CF
:1017D0001B689B68012B06D1874B1B6A864A43F026
:1017E0000103136235E007F50273A3F501731B686B
:1017F0009B68002B0CD1804B1B6A7F4A23F00103AE
:1018000013627D4B1B6A7C4A23F00403136220E0C1
:1018100007F50273A3F501731B689B68052B0CD1B8
:10182000754B1B6A744A43F004031362724B1B6AC4
:10183000714A43F0010313620BE06F4B1B6A6E4A5F
:1018400023F0010313626C4B1B6A6B4A23F0040301
:10185000136207F50273A3F501731B689B68002BE5
:1018600000F08180FEF7D8FFC7F800020BE0FEF71A
:10187000D3FF0246D7F80032D31A41F2883293429E
:1018800001D9032365E307F50273A3F5A2730222CE
:101890001A6007F50273A3F5A2731B6893FAA3F20B
:1018A00007F50273A3F5A4731A6007F50273A3F595
:1018B000A67302221A6007F50273A3F5A6731B68CC
:1018C00093FAA3F207F50273A3F5A8731A6007F55C
:1018D0000273A3F5A8731B68B3FA83F3DBB25B0949
:1018E000DBB243F00203DBB2022B02D1424B1B6A94
:1018F00013E007F50273A3F5AA7302221A6007F535
:101900000273A3F5AA731B6893FAA3F207F5027397
:10191000A3F5AC731A60384B5B6A07F50272A2F547
:10192000AE720221116007F50272A2F5AE72126862
:1019300092FAA2F107F50272A2F5B072116007F5F2
:101940000272A2F5B0721268B2FA82F2D2B242F01A
:101950004002D2B202F01F02012101FA02F213404A
:10196000002B84D083E0FEF757FFC7F800020BE09E
:10197000FEF752FF0246D7F80032D31A41F28832FE
:10198000934201D90323E4E207F50273A3F5B2738E
:1019900002221A6007F50273A3F5B2731B6893FA6B
:1019A000A3F207F50273A3F5B4731A6007F5027387
:1019B000A3F5B67302221A6007F50273A3F5B67396
:1019C0001B6893FAA3F207F50273A3F5B8731A60C4
:1019D00007F50273A3F5B8731B68B3FA83F3DBB2A0
:1019E0005B09DBB243F00203DBB2022B06D1024BF0
:1019F0001B6A17E0007000400010024007F50273F8
:101A0000A3F5BA7302221A6007F50273A3F5BA733D
:101A10001B6893FAA3F207F50273A3F5BC731A606F
:101A2000B34B5B6A07F50272A2F5BE720221116028
:101A300007F50272A2F5BE72126892FAA2F107F5DA
:101A40000272A2F5C072116007F50272A2F5C072AF
:101A50001268B2FA82F2D2B242F04002D2B202F07E
:101A60001F02012101FA02F21340002B80D197F8E6
:101A70000732012B05D19E4BDB699D4A23F0805331
:101A8000D36107F50273A3F501731B689B69002BF3
:101A900000F05E82964B5B6803F00C03082B00F0AD
:101AA0001F8207F50273A3F501731B689B69022B64
:101AB00040F0708107F50273A3F5C2734FF0807296
:101AC0001A6007F50273A3F5C2731B6893FAA3F2B9
:101AD00007F50273A3F5C4731A6007F50273A3F543
:101AE000C4731B68B3FA83F3DBB203F1845303F5C9
:101AF00084139B001A4600231360FEF78DFEC7F87F
:101B0000000209E0FEF788FE0246D7F80032D31A39
:101B1000022B01D903231CE207F50273A3F5C67358
:101B20004FF000721A6007F50273A3F5C6731B68C5
:101B300093FAA3F207F50273A3F5C8731A6007F5C9
:101B40000273A3F5C8731B68B3FA83F3DBB25B09B6
:101B5000DBB243F00103DBB2012B02D1644B1B6803
:101B600027E007F50273A3F5CA734FF000721A60FD
:101B700007F50273A3F5CA731B6893FAA3F207F57E
:101B80000273A3F5CC731A6007F50273A3F5CE7345
:101B90004FF000721A6007F50273A3F5CE731B684D
:101BA00093FAA3F207F50273A3F5D0731A60504BB2
:101BB0005B6A07F50272A2F5D2724FF000711160F4
:101BC00007F50272A2F5D272126892FAA2F107F535
:101BD0000272A2F5D472116007F50272A2F5D472F6
:101BE0001268B2FA82F2D2B242F02002D2B202F00D
:101BF0001F02012101FA02F21340002B82D13C4B5B
:101C0000DB6A23F00F0207F50273A3F501731B686B
:101C10005B6A37491343CB62354B5B6823F476121A
:101C200007F50273A3F501731B68196A07F50273C0
:101C3000A3F501731B68DB690B432D4913434B600C
:101C400007F50273A3F5D6734FF080721A6007F59B
:101C50000273A3F5D6731B6893FAA3F207F5027318
:101C6000A3F5D8731A6007F50273A3F5D8731B6840
:101C7000B3FA83F3DBB203F1845303F584139B00BF
:101C80001A4601231360FEF7C7FDC7F8000209E0FA
:101C9000FEF7C2FD0246D7F80032D31A022B01D953
:101CA000032356E107F50273A3F5DA734FF00072D0
:101CB0001A6007F50273A3F5DA731B6893FAA3F2AF
:101CC00007F50273A3F5DC731A6007F50273A3F539
:101CD000DC731B68B3FA83F3DBB25B09DBB243F05E
:101CE0000103DBB2012B05D1014B1B682AE000BFC9
:101CF0000010024007F50273A3F5DE734FF0007287
:101D00001A6007F50273A3F5DE731B6893FAA3F25A
:101D100007F50273A3F5E0731A6007F50273A3F5E4
:101D2000E2734FF000721A6007F50273A3F5E273D5
:101D30001B6893FAA3F207F50273A3F5E4731A6024
:101D4000864B5B6A07F50272A2F5E6724FF00071EE
:101D5000116007F50272A2F5E672126892FAA2F11A
:101D600007F50272A2F5E872116007F50272A2F59A
:101D7000E8721268B2FA82F2D2B242F02002D2B213
:101D800002F01F02012101FA02F21340002B3FF47E
:101D90007FAFDDE007F50273A3F5EA734FF08072C1
:101DA0001A6007F50273A3F5EA731B6893FAA3F2AE
:101DB00007F50273A3F5EC731A6007F50273A3F538
:101DC000EC731B68B3FA83F3DBB203F1845303F5BE
:101DD00084139B001A4600231360FEF71DFDC7F80D
:101DE000000209E0FEF718FD0246D7F80032D31AC8
:101DF000022B01D90323ACE007F50273A3F5EE73C0
:101E00004FF000721A6007F50273A3F5EE731B68BA
:101E100093FAA3F207F50273A3F5F0731A6007F5BE
:101E20000273A3F5F0731B68B3FA83F3DBB25B09AB
:101E3000DBB243F00103DBB2012B02D1474B1B683D
:101E400027E007F50273A3F5F2734FF000721A60F2
:101E500007F50273A3F5F2731B6893FAA3F207F573
:101E60000273A3F5F4731A6007F50273A3F5F67312
:101E70004FF000721A6007F50273A3F5F6731B6842
:101E800093FAA3F207F50273A3F5F8731A60334BC4
:101E90005B6A07F50272A2F5FA724FF000711160E9
:101EA00007F50272A2F5FA72126892FAA2F107F52A
:101EB0000272A2F5FC72116007F50272A2F5FC72C3
:101EC0001268B2FA82F2D2B242F02002D2B202F02A
:101ED0001F02012101FA02F21340002B82D137E0E8
:101EE00007F50273A3F501731B689B69012B01D1F0
:101EF00001232EE0194B5B68C7F8FC31174BDB6AF6
:101F0000C7F8F831D7F8FC3103F4C03207F5027393
:101F1000A3F501731B68DB699A4217D1D7F8FC312E
:101F200003F4701207F50273A3F501731B681B6AB3
:101F30009A420BD1D7F8F83103F00F0207F502737C
:101F4000A3F501731B685B6A9A4201D0012300E08C
:101F50000023184607F50277BD4680BD00100240F9
:101F600080B59EB000AF7860396000237B677B68E6
:101F7000002B01D1012362E1904B1B6803F00703A2
:101F80003A689A4210D98D4B1B6823F007028B499F
:101F90003B6813430B60894B1B6803F007033A68E7
:101FA0009A4201D001234AE17B681B6803F00203D7
:101FB000002B08D0824B5B6823F0F0027B689B68A3
:101FC0007F4913434B607B681B6803F00103002BC0
:101FD00000F0DC807B685B68012B3CD14FF4003360
:101FE0003B673B6F93FAA3F3FB66FB6EB3FA83F395
:101FF000DBB25B09DBB243F00103DBB2012B02D1A0
:102000006F4B1B680FE04FF40033BB66BB6E93FA57
:10201000A3F37B664FF400333B663B6E93FAA3F366
:10202000FB65674B5B6A4FF40032BA65BA6D92FA92
:10203000A2F27A657A6DB2FA82F2D2B242F020024E
:10204000D2B202F01F02012101FA02F21340002B6A
:102050007BD10123F3E07B685B68022B3CD14FF01E
:1020600000733B653B6D93FAA3F3FB64FB6CB3FA1F
:1020700083F3DBB25B09DBB243F00103DBB2012B7C
:1020800002D14F4B1B680FE04FF00073BB64BB6C79
:1020900093FAA3F37B644FF000733B643B6C93FAB9
:1020A000A3F3FB63464B5B6A4FF00072BA63BA6BF3
:1020B00092FAA2F27A637A6BB2FA82F2D2B242F068
:1020C0002002D2B202F01F02012101FA02F21340F3
:1020D000002B3AD10123B2E002233B633B6B93FA1E
:1020E000A3F3FB62FB6AB3FA83F3DBB25B09DBB2F7
:1020F00043F00103DBB2012B02D1314B1B680DE031
:102100000223BB62BB6A93FAA3F37B6202233B62A6
:102110003B6A93FAA3F3FB61294B5B6A0222BA6123
:10212000BA6992FAA2F27A617A69B2FA82F2D2B20A
:1021300042F02002D2B202F01F02012101FA02F2A3
:102140001340002B01D1012379E01D4B5B6823F084
:1021500003027B685B681A4913434B60FEF75CFB24
:1021600078670AE0FEF758FB02467B6FD31A41F20C
:102170008832934201D9032361E0114B5B6803F07D
:102180000C027B685B689B009A42EBD10B4B1B688F
:1021900003F007033A689A4214D2084B1B6823F0F5
:1021A000070206493B6813430B60044B1B6803F0AE
:1021B00007033A689A4205D0012340E0002002401C
:1021C000001002407B681B6803F00403002B08D05A
:1021D0001D4B5B6823F4E0627B68DB681A4913439C
:1021E0004B607B681B6803F00803002B09D0164B7B
:1021F0005B6823F460527B681B69DB001249134360
:102200004B6000F029F801460F4B5B6803F0F003C8
:10221000F0223A613A6992FAA2F2FA60FA68B2FAE6
:1022200082F2D2B2D340094AD35C21FA03F3084ABE
:102230001360084B1B681846FEF7AAFA00231846DD
:102240007837BD4680BD00BF00100240984C0008A2
:10225000000000200400002080B48BB000AF0023F9
:10226000FB610023BB6100237B6200237B610023B1
:102270003B622A4B5B68FB61FB6903F00C03042B98
:1022800002D0082B03D03FE0254B3B623FE0FB69C7
:1022900003F470134FF47012BA60BA6892FAA2F2A3
:1022A0007A607A68B2FA82F2D2B2D3401D4AD35C25
:1022B0007B611A4BDB6A03F00F030F223A613A6924
:1022C00092FAA2F2FA60FA68B2FA82F2D2B2D3407B
:1022D000154AD35CBB61FB6903F48033002B08D043
:1022E0000F4ABB69B2FBF3F27B6902FB03F37B622B
:1022F00007E00B4ABB69B2FBF3F27B6902FB03F315
:102300007B627B6A3B6202E0054B3B6200BF3B6A3B
:1023100018462C37BD465DF8047B7047001002401C
:1023200000127A00B04C0008C04C000880B400AF26
:10233000034B1B681846BD465DF8047B704700BF21
:102340000000002080B582B000AFFFF7EFFF01462C
:102350000B4B5B6803F4E0634FF4E0627A607A68E9
:1023600092FAA2F23A603A68B2FA82F2D2B2D3405A
:10237000044AD35C21FA03F318460837BD4680BDF2
:1023800000100240A84C000880B582B000AFFFF7F3
:10239000CDFF01460B4B5B6803F460534FF4605272
:1023A0007A607A6892FAA2F23A603A68B2FA82F2F5
:1023B000D2B2D340044AD35C21FA03F3184608375B
:1023C000BD4680BD00100240A84C000880B592B008
:1023D00000AF786000233B640023FB63002387F891
:1023E00047307B681B6803F48033002B00F0D480F7
:1023F0004E4BDB6903F08053002B0ED14B4BDB6956
:102400004A4A43F08053D361484BDB6903F0805361
:10241000BB60BB68012387F84730454B1B6803F45A
:102420008073002B18D1424B1B68414A43F48073E0
:102430001360FEF7F1F9386408E0FEF7EDF90246A3
:102440003B6CD31A642B01D90323D6E1384B1B68AC
:1024500003F48073002BF0D0344B1B6A03F44073F9
:10246000FB63FB6B002B00F084807B685B6803F4EC
:102470004073FA6B9A427CD02C4B1B6A23F4407356
:10248000FB634FF480333B633B6B93FAA3F3FB6234
:10249000FB6AB3FA83F3DBB21A46264B13449B0064
:1024A0001A46012313604FF48033BB63BB6B93FA6E
:1024B000A3F37B637B6BB3FA83F3DBB21A461D4B4A
:1024C00013449B001A4600231360184AFB6B1362E7
:1024D000FB6B03F00103002B4BD0FEF79DF9386432
:1024E0000AE0FEF799F902463B6CD31A41F28832B2
:1024F000934201D9032380E10223BB62BB6A93FAB2
:10250000A3F37B6202233B623B6A93FAA3F3FB6172
:10251000FB69B3FA83F3DBB25B09DBB243F002037E
:10252000DBB2022B08D1014B1B6A0DE00010024008
:1025300000700040008190100223BB61BB6993FAD8
:10254000A3F37B619A4B5B6A02223A613A6992FA81
:10255000A2F2FA60FA68B2FA82F2D2B242F0400213
:10256000D2B202F01F02012101FA02F21340002B45
:10257000B7D08F4B1B6A23F440727B685B688C4931
:1025800013430B6297F84730012B05D1884BDB6969
:10259000874A23F08053D3617B681B6803F00103F3
:1025A000002B08D0824B1B6B23F003027B689B68D7
:1025B0007F4913430B637B681B6803F00203002B06
:1025C00008D07B4B1B6B23F440327B68DB68784977
:1025D00013430B637B681B6803F00403002B08D0D4
:1025E000734B1B6B23F440227B681B6970491343B8
:1025F0000B637B681B6803F02003002B08D06C4B37
:102600001B6B23F010027B68DB69694913430B6382
:102610007B681B6803F40033002B08D0644B5B68B5
:1026200023F480027B685B6D614913434B607B68D8
:102630001B6803F04003002B08D05D4B1B6B23F09D
:1026400020027B681B6A5A4913430B637B681B6833
:1026500003F48023002B08D0554B1B6B23F0400262
:102660007B685B6A524913430B637B681B6803F00A
:102670000803002B08D04E4B1B6B23F440127B68E1
:102680005B694B4913430B637B681B6803F01003C2
:10269000002B08D0464B1B6B23F440027B689B69E0
:1026A000434913430B637B681B6803F40073002BDF
:1026B00008D03F4B5B6823F400027B681B6B3C49EE
:1026C00013434B607B681B6803F08003002B08D02A
:1026D000374BDB6A23F4F8727B689B6A34491343F7
:1026E000CB627B681B6803F48073002B08D0304BEF
:1026F000DB6A23F478527B68DB6A2D491343CB6293
:102700007B681B6803F48053002B08D0284B1B6B9D
:1027100023F480727B685B6B254913430B637B68F2
:102720001B6803F40053002B08D0214B1B6B23F4D0
:1027300000727B681B6C1E4913430B637B681B682C
:1027400003F48013002B08D0194B1B6B23F080720D
:102750007B689B6B164913430B637B681B6803F410
:102760000013002B08D0124B1B6B23F000727B6808
:10277000DB6B0F4913430B637B681B6803F4800317
:10278000002B08D00A4B1B6B23F480627B685B6CC8
:10279000074913430B637B681B6803F40003002B9A
:1027A0000CD0034B1B6B23F400627B6802E000BF7C
:1027B000001002409B6C134913430B637B681B683A
:1027C00003F08073002B08D00E4B1B6B23F40052D8
:1027D0007B68DB6C0B4913430B637B681B6803F05E
:1027E0000073002B08D0074B1B6B23F400427B685F
:1027F0001B6D044913430B63002318464837BD463D
:1028000080BD00BF0010024080B582B000AF78608C
:102810007B68002B01D1012340E07B68DB6F002B3C
:1028200006D17B68002283F878207868FDF7E6FE01
:102830007B682422DA677B681B681A687B681B68E0
:1028400022F001021A60786800F032FB0346012B87
:1028500001D1012322E07B685B6A002B02D07868FB
:1028600000F0FAFC7B681B685A687B681B6822F4DE
:1028700090425A607B681B689A687B681B6822F0EC
:102880002A029A607B681B681A687B681B6842F0A2
:1028900001021A60786800F081FD03461846083787
:1028A000BD4680BD80B5BAB000AF78607B681B685C
:1028B000DB69C7F8E4307B681B681B68C7F8E03049
:1028C0007B681B689B68C7F8DC30D7F8E42040F6CB
:1028D0000F031340C7F8D830D7F8D830002B15D1E4
:1028E000D7F8E43003F02003002B0FD0D7F8E03006
:1028F00003F02003002B09D07B689B6E002B00F0B7
:10290000AB827B689B6E78689847A5E2D7F8D83091
:10291000002B00F01781D7F8DC3003F00103002B07
:1029200006D1D7F8E020854B1340002B00F00A8138
:10293000D7F8E43003F00103002B11D0D7F8E030D2
:1029400003F48073002B0BD07B681B6801221A6292
:102950007B68D3F8843043F001027B68C3F884209D
:10296000D7F8E43003F00203002B11D0D7F8DC30A5
:1029700003F00103002B0BD07B681B6802221A6254
:102980007B68D3F8843043F004027B68C3F884206A
:10299000D7F8E43003F00403002B11D0D7F8DC3073
:1029A00003F00103002B0BD07B681B6804221A6222
:1029B0007B68D3F8843043F002027B68C3F884203C
:1029C000D7F8E43003F00803002B17D0D7F8E03035
:1029D00003F02003002B05D1D7F8DC3003F001030E
:1029E000002B0BD07B681B6808221A627B68D3F827
:1029F000843043F008027B68C3F88420D7F8E430C1
:102A000003F40063002B12D0D7F8E03003F08063AA
:102A1000002B0CD07B681B684FF400621A627B6845
:102A2000D3F8843043F020027B68C3F884207B68AD
:102A3000D3F88430002B00F01182D7F8E43003F093
:102A40002003002B0DD0D7F8E03003F02003002B3B
:102A500007D07B689B6E002B03D07B689B6E7868E9
:102A600098477B68D3F88430C7F8D4307B681B68FC
:102A70009B6803F04003402B05D0D7F8D43003F017
:102A80002803002B4FD0786800F097FD7B681B6807
:102A90009B6803F04003402B41D17B681B680833DF
:102AA000C7F89C30D7F89C3053E8003FC7F89830FF
:102AB000D7F8983023F04003C7F8D0307B681B6804
:102AC0000833D7F8D020C7F8A820C7F8A430D7F823
:102AD000A410D7F8A82041E80023C7F8A030D7F801
:102AE000A030002BD9D17B685B6F002B13D07B68A3
:102AF0005B6F134A5A637B685B6F1846FDF7E2FF12
:102B00000346002B17D07B685B6F5B6B7A68526F54
:102B1000104698470FE0786800F0B4F90BE0786849
:102B200000F0B0F907E0786800F0ACF97B680022AB
:102B3000C3F8842092E100BF90E100BF20010004AF
:102B4000833600087B681B6E012B40F04B81D7F861
:102B5000E43003F01003002B00F04481D7F8E0309C
:102B600003F01003002B00F03D817B681B681022EE
:102B70001A627B681B689B6803F04003402B40F09F
:102B8000B5807B685B6F1B685B68A7F8BE30B7F8E1
:102B9000BE30002B00F064817B68B3F85830B7F882
:102BA000BE209A4280F05C817B68B7F8BE20A3F813
:102BB0005A207B685B6F9B69202B00F086807B68C6
:102BC0001B68C7F88830D7F8883053E8003FC7F84B
:102BD0008430D7F8843023F48073C7F8B8307B682A
:102BE0001B681A46D7F8B830C7F89430C7F8902059
:102BF000D7F89010D7F8942041E80023C7F88C301C
:102C0000D7F88C30002BDAD17B681B6808337B67E0
:102C10007B6F53E8003F3B673B6F23F00103C7F82E
:102C2000B4307B681B680833D7F8B420C7F880201D
:102C3000FB67F96FD7F8802041E80023BB67BB6FC3
:102C4000002BE1D17B681B6808333B663B6E53E881
:102C5000003FFB65FB6D23F04003C7F8B0307B6895
:102C60001B680833D7F8B020FA66BB66B96EFA6EF7
:102C700041E800237B667B6E002BE3D17B6820223A
:102C8000C3F880207B6800221A667B681B68FB649F
:102C9000FB6C53E8003FBB64BB6C23F01003C7F828
:102CA000AC307B681B681A46D7F8AC30BB657A65D8
:102CB000796DBA6D41E800233B653B6D002BE4D193
:102CC0007B685B6F1846FDF7C4FE7B6802225A667C
:102CD0007B68B3F858207B68B3F85A309BB2D31A9C
:102CE0009BB21946786800F0D7F8B9E07B68B3F872
:102CF00058207B68B3F85A309BB2D31AA7F8CE306D
:102D00007B68B3F85A309BB2002B00F0AB80B7F869
:102D1000CE30002B00F0A6807B681B68BB63BB6BCA
:102D200053E8003F7B637B6B23F49073C7F8C83094
:102D30007B681B681A46D7F8C8307B643A64396CE4
:102D40007A6C41E80023FB63FB6B002BE4D17B68CA
:102D50001B6808337B627B6A53E8003F3B623B6A37
:102D600023F00103C7F8C4307B681B680833D7F829
:102D7000C4203A63FB62F96A3A6B41E80023BB6204
:102D8000BB6A002BE3D17B682022C3F880207B68DC
:102D900000221A667B6800229A667B681B683B618A
:102DA0003B6953E8003FFB60FB6823F01003C7F862
:102DB000C0307B681B681A46D7F8C030FB61BA6127
:102DC000B969FA6941E800237B617B69002BE4D192
:102DD0007B6802225A66B7F8CE301946786800F050
:102DE0005BF83FE0D7F8E43003F48013002B0ED0FB
:102DF000D7F8DC3003F48003002B08D07B681B6815
:102E00004FF480121A62786800F07BFC2DE0D7F84E
:102E1000E43003F08003002B0ED0D7F8E03003F04D
:102E20008003002B08D07B68DB6E002B1CD07B68F6
:102E3000DB6E7868984717E0D7F8E43003F040037A
:102E4000002B12D0D7F8E03003F04003002B0CD059
:102E5000786800F02CFC08E000BF06E000BF04E04A
:102E600000BF02E000BF00E000BFE837BD4680BD04
:102E700080B483B000AF786000BF0C37BD465DF80A
:102E8000047B704780B483B000AF786000BF0C371C
:102E9000BD465DF8047B704780B483B000AF7860B6
:102EA0000B467B8000BF0C37BD465DF8047B704746
:102EB00080B588B000AF78600023BB777B689A68E4
:102EC0007B681B691A437B685B691A437B68DB6913
:102ED00013437B617B681B681A68924B13407A68C6
:102EE000126879690B4313607B681B685B6823F485
:102EF00040517B68DA687B681B680A435A607B68CC
:102F00009B697B617B681B6A7A6913437B617B6881
:102F10001B689B6823F430617B681B687A690A43ED
:102F20009A607B681B68804A934220D17F4B1B6B61
:102F300003F00303032B17D801A252F823F000BFBC
:102F4000512F00085D2F0008632F0008572F00083D
:102F50000123FB77B5E00223FB77B2E00423FB7784
:102F6000AFE00823FB77ACE01023FB77A9E07B6898
:102F70001B686F4A934224D16C4B1B6B03F44033A4
:102F8000B3F5403F11D0B3F5403F17D8B3F5003F3C
:102F900011D0B3F5003F11D8002B03D0B3F5803F1B
:102FA00006D00BE00023FB778BE00223FB7788E061
:102FB0000423FB7785E00823FB7782E01023FB776F
:102FC0007FE07B681B685B4A934224D1574B1B6BA5
:102FD00003F44023B3F5402F11D0B3F5402F17D899
:102FE000B3F5002F11D0B3F5002F11D8002B03D06B
:102FF000B3F5802F06D00BE00023FB7761E00223BE
:10300000FB775EE00423FB775BE00823FB7758E067
:103010001023FB7755E07B681B68474A934224D115
:10302000424B1B6B03F44013B3F5401F11D0B3F5B3
:10303000401F17D8B3F5001F11D0B3F5001F11D8EA
:10304000002B03D0B3F5801F06D00BE00023FB77E5
:1030500037E00223FB7734E00423FB7731E00823D9
:10306000FB772EE01023FB772BE07B681B68334A4D
:10307000934224D12D4B1B6B03F44003B3F5400F57
:1030800011D0B3F5400F17D8B3F5000F11D0B3F539
:10309000000F11D8002B03D0B3F5800F06D00BE042
:1030A0000023FB770DE00223FB770AE00423FB7784
:1030B00007E00823FB7704E01023FB7701E01023EF
:1030C000FB777B68DB69B3F5004F6BD1FB7F082B87
:1030D00038D801A252F823F0FD300008053100086D
:1030E0000D31000845310008133100084531000852
:1030F00045310008453100081B310008FFF722F96F
:10310000B86124E0FFF740F9B86120E00C4BBB61E7
:103110001DE0FFF7A1F8B86119E04FF40043BB616F
:1031200015E000BFF369FFEF0038014000100240D6
:103130000044004000480040004C00400050004067
:1031400000127A000023BB610123BB7700BFBB697B
:10315000002B73D0BB695A007B685B685B081A441C
:103160007B685B68B2FBF3F33B613B690F2B16D9BD
:103170003B69B3F5803F12D23B699BB223F00F034A
:10318000FB813B695B089BB203F007039AB2FB89A2
:103190001343FB817B681B68FA89DA604EE00123E8
:1031A000BB774BE0FB7F082B27D801A252F823F016
:1031B000D5310008DD310008E5310008FB31000899
:1031C000EB310008FB310008FB310008FB3100083F
:1031D000F3310008FFF7B6F8B86113E0FFF7D4F851
:1031E000B8610FE01B4BBB610CE0FFF735F8B8612D
:1031F00008E04FF40043BB6104E00023BB610123FE
:10320000BB7700BFBB69002B18D07B685B685A088E
:10321000BB691A447B685B68B2FBF3F33B613B69B3
:103220000F2B09D93B69B3F5803F05D23B699AB2B0
:103230007B681B68DA6001E00123BB777B680022B2
:103240009A667B680022DA66BB7F18462037BD4647
:1032500080BD00BF00127A0080B483B000AF7860F8
:103260007B685B6A03F00103002B0AD07B681B6854
:103270005B6823F400317B689A6A7B681B680A43A9
:103280005A607B685B6A03F00203002B0AD07B68FC
:103290001B685B6823F480317B68DA6A7B681B6893
:1032A0000A435A607B685B6A03F00403002B0AD070
:1032B0007B681B685B6823F480217B681A6B7B68E2
:1032C0001B680A435A607B685B6A03F00803002BA3
:1032D0000AD07B681B685B6823F400417B685A6BEB
:1032E0007B681B680A435A607B685B6A03F01003C3
:1032F000002B0AD07B681B689B6823F480517B6895
:103300009A6B7B681B680A439A607B685B6A03F070
:103310002003002B0AD07B681B689B6823F40051B4
:103320007B68DA6B7B681B680A439A607B685B6A20
:1033300003F04003002B1AD07B681B685B6823F402
:1033400080117B681A6C7B681B680A435A607B6833
:103350001B6CB3F5801F0AD17B681B685B6823F484
:10336000C0017B685A6C7B681B680A435A607B68A3
:103370005B6A03F08003002B0AD07B681B685B68E4
:1033800023F400217B689A6C7B681B680A435A60AF
:1033900000BF0C37BD465DF8047B704780B598B020
:1033A00002AF78607B680022C3F88420FDF734FA0E
:1033B00078657B681B681B6803F00803082B2ED117
:1033C0006FF07E4300937B6D00224FF4001178680C
:1033D00000F08CF80346002B21D07B681B68BB6390
:1033E000BB6B53E8003F7B637B6B23F080033B6543
:1033F0007B681B681A463B6D7B643A64396C7A6C57
:1034000041E80023FB63FB6B002BE6D17B682022A5
:10341000DA677B68002283F87820032362E07B6808
:103420001B681B6803F00403042B49D16FF07E4333
:1034300000937B6D00224FF48001786800F056F80D
:103440000346002B3CD07B681B687B627B6A53E899
:10345000003F3B623B6A23F49073FB647B681B680C
:103460001A46FB6C3B63FA62F96A3A6B41E8002347
:10347000BB62BB6A002BE6D17B681B6808333B61EB
:103480003B6953E8003FFB60FB6823F00103BB642A
:103490007B681B680833BA6CFA61BB61B969FA6969
:1034A00041E800237B617B69002BE5D17B6820220A
:1034B000C3F880207B68002283F87820032311E082
:1034C0007B682022DA677B682022C3F880207B6833
:1034D00000221A667B6800225A667B68002283F805
:1034E0007820002318465837BD4680BD80B584B08B
:1034F00000AFF860B9603B601346FB7149E0BB69FF
:10350000B3F1FF3F45D0FDF787F902463B68D31A78
:10351000BA699A4202D3BB69002B01D1032348E068
:10352000FB681B681B6803F00403002B31D0FB68A9
:103530001B68DB6903F00803082B10D1FB681B68CC
:1035400008221A62F86800F038F8FB680822C3F80D
:103550008420FB68002283F87820012329E0FB689F
:103560001B68DB6903F40063B3F5006F11D1FB68DE
:103570001B684FF400621A62F86800F01EF8FB68DE
:103580002022C3F88420FB68002283F878200323DC
:103590000FE0FB681B68DA69BB681340BA689A429F
:1035A0000CBF01230023DBB21A46FB799A42A6D056
:1035B000002318461037BD4680BD80B495B000AFDB
:1035C00078607B681B687B637B6B53E8003F3B63E1
:1035D0003B6B23F49073FB647B681B681A46FB6C9F
:1035E0003B64FA63F96B3A6C41E80023BB63BB6B45
:1035F000002BE6D17B681B6808333B623B6A53E8CB
:10360000003FFB61FB6923F00103BB647B681B681F
:103610000833BA6CFA62BB62B96AFA6A41E80023FD
:103620007B627B6A002BE5D17B681B6E012B18D176
:103630007B681B68FB60FB6853E8003FBB60BB68AE
:1036400023F010037B647B681B681A467B6CBB61AC
:103650007A617969BA6941E800233B613B69002BD3
:10366000E6D17B682022C3F880207B6800221A669E
:103670007B6800229A6600BF5437BD465DF8047B24
:10368000704780B584B000AF78607B685B6AFB6090
:10369000FB680022A3F85A20FB680022A3F85220FE
:1036A000F868FFF7EFFB00BF1037BD4680BD80B55F
:1036B00088B000AF78607B681B68FB60FB6853E8EC
:1036C000003FBB60BB6823F04003FB617B681B6865
:1036D0001A46FB69BB617A617969BA6941E80023DE
:1036E0003B613B69002BE6D17B682022DA677B686F
:1036F0000022DA667868FFF7BBFB00BF2037BD46C3
:1037000080BD80B483B000AF786000BF0C37BD4689
:103710005DF8047B704780B485B000AF0346FB8042
:103720000023FB60B7F90630842B05D0B7F90620DB
:10373000FB6813440333FB60FB6818461437BD462F
:103740005DF8047B704780B500AF00F0D5FA002328
:10375000184680BDF0B589B004AF786039607B68E9
:103760005B69002B20D07B689B69002B1CD07B6899
:103770005C687B681D687B681E697B68B3F90830EC
:103780001846FFF7C8FF01467B685B697A68926953
:103790000292019300913B6832462946204600F090
:1037A000EDF80346FB601CE07B685C687B681D6885
:1037B0007B681B699EB27B68B3F908301846FFF737
:1037C000AAFF024607F10C03019300923B683246C0
:1037D0002946204600F02EF90346012B01D0002394
:1037E00000E0FB6818461437BD46F0BD80B584B0D4
:1037F00000AF78607B68FB60FB68002B01D0FB6842
:1038000000E00123184600F043FA00231846103761
:10381000BD4680BD80B483B000AF78607B6803F1A3
:1038200008027B685A607B684FF0FF329A607B68C1
:1038300003F108027B68DA607B6803F108027B68A9
:103840001A617B6800221A6000BF0C37BD465DF824
:10385000047B704780B483B000AF78607B6800223F
:103860001A6100BF0C37BD465DF8047B704780B419
:1038700085B000AF786039607B685B68FB603B684F
:10388000FA685A60FB689A683B689A60FB689B68B4
:103890003A685A60FB683A689A603B687A681A61CD
:1038A0007B681B685A1C7B681A6000BF1437BD46D2
:1038B0005DF8047B704780B485B000AF78603960F4
:1038C0003B681B68BB60BB68B3F1FF3F03D17B68FB
:1038D0001B69FB600CE07B680833FB6002E0FB685F
:1038E0005B68FB60FB685B681B68BA689A42F6D24B
:1038F000FB685A683B685A603B685B683A689A6044
:103900003B68FA689A60FB683A685A603B687A6874
:103910001A617B681B685A1C7B681A6000BF1437E9
:10392000BD465DF8047B704780B485B000AF786019
:103930007B681B69FB607B685B687A6892689A6049
:103940007B689B687A6852685A60FB685B687A6833
:103950009A4203D17B689A68FB685A607B680022B0
:103960001A61FB681B685A1EFB681A60FB681B68BB
:1039700018461437BD465DF8047B704780B58EB09D
:1039800004AFF860B9607A603B607B6B002B0AD1B2
:103990004FF0500383F31188BFF36F8FBFF34F8F46
:1039A0003B6200BFFEE7BB6B002B0AD14FF0500318
:1039B00083F31188BFF36F8FBFF34F8FFB6100BF9D
:1039C000FEE754233B613B69542B0AD04FF0500370
:1039D00083F31188BFF36F8FBFF34F8FBB6100BFBD
:1039E000FEE7BB6B002B1ED07B6B002B1BD0BB6B91
:1039F0007B627B6A7A6B1A637B6A022283F85120AE
:103A0000002303937B6A029307F1140301933B6B3A
:103A100000933B687A68B968F86800F050F8786AF3
:103A200000F0CCF801E000237B617B691846283761
:103A3000BD4680BD80B58CB004AFF860B9603B6016
:103A40001346FB80FB889B00184600F0E5FE78617A
:103A50007B69002B0ED0542000F0DEFEF861FB697C
:103A6000002B03D0FB697A691A6305E0786900F0DE
:103A700097FF01E00023FB61FB69002B17D0FB6976
:103A8000002283F85120FA8800230393FB690293F4
:103A9000FB6A0193BB6A00933B68B968F86800F061
:103AA0000EF8F86900F08AF80123BB6102E04FF0DC
:103AB000FF33BB61BB6918462037BD4680BD80B56A
:103AC00088B000AFF860B9607A603B603B6B1A6BFE
:103AD0007B6803F18043013B9B001344BB61BB69DE
:103AE00023F00703BB61BB6903F00703002B0AD077
:103AF0004FF0500383F31188BFF36F8FBFF34F8FE5
:103B00007B6100BFFEE70023FB6112E0BA68FB693E
:103B1000134419783A6BFB69134434330A461A701C
:103B2000BA68FB6913441B78002B06D0FB6901338C
:103B3000FB61FB690F2BE9D900E000BF3B6B002262
:103B400083F84320BB6A062B01D90623BB623B6B7B
:103B5000BA6ADA623B6BBA6A5A643B6B00229A64B7
:103B60003B6B04331846FFF775FE3B6B1833184662
:103B7000FFF770FE3B6B3A6B1A61BB6AC3F1070239
:103B80003B6B9A613B6B3A6B5A623B6B0022DA6487
:103B90003B6B002283F850203A68F968B86900F05E
:103BA0002FFC02463B6B1A60FB6A002B02D0FB6ABB
:103BB0003A6B1A6000BF2037BD4680BD80B582B029
:103BC00000AF786000F046FD2A4B1B680133294A9C
:103BD0001360294B1B68002B09D1274A7B681360AF
:103BE000244B1B68012B10D100F0C2FA0DE0234BCF
:103BF0001B68002B09D1204B1B68DA6A7B68DB6AE3
:103C00009A4202D81C4A7B6813601D4B1B68013323
:103C10001B4A13607B68DB6A01229A40194B1B68C0
:103C20001343184A13607B68DA6A13469B001344F7
:103C30009B00154A1A447B68043319461046FFF767
:103C400016FE00F037FD0D4B1B68002B0ED00A4B03
:103C50001B68DA6A7B68DB6A9A4207D20B4B4FF02B
:103C600080521A60BFF34F8FBFF36F8F00BF0837CA
:103C7000BD4680BD14040020140300202004002051
:103C8000300400201C0400201803002004ED00E094
:103C900080B584B000AF78600023FB607B68002BA8
:103CA00017D0134B1B68002B0AD04FF0500383F33F
:103CB0001188BFF36F8FBFF34F8FBB6000BFFEE76C
:103CC00000F07AF80021786800F034FB00F082F808
:103CD000F860FB68002B07D1064B4FF080521A604A
:103CE000BFF34F8FBFF36F8F00BF1037BD4680BD4E
:103CF0003C04002004ED00E080B58AB004AF00234E
:103D0000BB6000237B603A46391D07F10803184663
:103D1000FCF792FA39687B68BA6802920193002333
:103D2000009300230A461E491E48FFF727FE03465C
:103D30001D4A13601C4B1B68002B02D001237B61C2
:103D400001E000237B617B69012B16D14FF050030A
:103D500083F31188BFF36F8FBFF34F8F3B6100BFB9
:103D6000124B4FF0FF321A60114B01221A60114BB7
:103D700000221A6000F0CCFB0EE07B69B3F1FF3F3C
:103D80000AD14FF0500383F31188BFF36F8FBFF355
:103D90004F8FFB6000BFFEE700BF1837BD4680BDF8
:103DA000904C0008414100083804002034040020F1
:103DB000200400201804002080B400AF044B1B68CE
:103DC0000133034A136000BFBD465DF8047B7047B2
:103DD0003C04002080B584B000AF0023FB600023CA
:103DE000BB60414B1B68002B0AD14FF0500383F39B
:103DF0001188BFF36F8FBFF34F8F3B6000BFFEE7AB
:103E000000F028FC384B1B68013B374A1360364BE7
:103E10001B68002B61D1354B1B68002B5DD02EE059
:103E2000334BDB68DB68FB60FB6818331846FFF731
:103E30007BFDFB6804331846FFF776FDFB68DB6A01
:103E400001229A402B4B1B6813432A4A1360FB68DC
:103E5000DA6A13469B0013449B00274A1A44FB6806
:103E6000043319461046FFF702FDFB68DA6A234B5C
:103E70001B68DB6A9A4202D3214B01221A601C4B59
:103E80001B68002BCCD1FB68002B01D000F00EFA90
:103E90001C4B1B687B607B68002B10D000F036F851
:103EA0000346002B02D0164B01221A607B68013BAF
:103EB0007B607B68002BF1D1124B00221A60104B03
:103EC0001B68002B09D00123BB600F4B4FF08052C1
:103ED0001A60BFF34F8FBFF36F8F00F0EBFBBB682F
:103EE00018461037BD4680BD3C0400201404002055
:103EF000D40300201C040020180300201403002019
:103F0000280400202404002004ED00E080B586B0E1
:103F100000AF00237B61514B1B68002B40F08D806C
:103F20004F4B1B6801333B614D4A3B6913603B6952
:103F3000002B20D14B4B1B681B68002B0AD04FF085
:103F4000500383F31188BFF36F8FBFF34F8F3B6034
:103F500000BFFEE7434B1B68FB60434B1B68414AB5
:103F60001360414AFB681360404B1B6801333F4AB2
:103F7000136000F09BF93E4B1B683A699A424DD39F
:103F8000384B1B681B68002B01D1012300E0002384
:103F9000002B04D0364B4FF0FF321A603EE0314B1D
:103FA0001B68DB68DB68BB60BB685B687B603A6989
:103FB0007B689A4203D22E4A7B6813602EE0BB686E
:103FC00004331846FFF7B0FCBB689B6A002B04D093
:103FD000BB6818331846FFF7A7FCBB68DB6A0122F1
:103FE0009A40244B1B681343224A1360BB68DA6A69
:103FF00013469B0013449B001F4A1A44BB680433BA
:1040000019461046FFF733FCBB68DA6A1B4B1B6886
:10401000DB6A9A42B4D301237B61B1E7174B1B687B
:10402000DA6A154913469B0013449B000B441B6836
:10403000012B07D901237B6104E0114B1B6801337D
:104040000F4A13600F4B1B68002B01D001237B61CB
:104050007B6918461837BD4680BD00BF3C04002070
:1040600018040020CC030020D00300202C040020E2
:10407000340400201C040020180300201403002036
:10408000240400202804002080B487B000AF274B10
:104090001B68002B03D0264B01221A603FE0244B03
:1040A00000221A60234B1B68FB60FB68B3FA83F3A2
:1040B000FB72FB7AC3F11F037B611F497A691346C8
:1040C0009B0013449B000B441B68002B0AD14FF04C
:1040D000500383F31188BFF36F8FBFF34F8F7B6063
:1040E00000BFFEE77A6913469B0013449B00124A07
:1040F00013443B613B695B685A683B695A603B69A2
:104100005A683B6908339A4204D13B695B685A6834
:104110003B695A603B695B68DB68084A136000BF13
:104120001C37BD465DF8047B704700BF3C0400208F
:10413000280400201C040020180300201403002081
:1041400080B582B000AF786000F052F8064B1B6873
:10415000012BF9D9054B4FF080521A60BFF34F8FF6
:10416000BFF36F8FF0E700BF1803002004ED00E0FD
:1041700080B582B000AF00237B600CE07A68134604
:104180009B0013449B00124A13441846FFF742FB5E
:104190007B6801337B607B68062BEFD90D48FFF706
:1041A00039FB0D48FFF736FB0C48FFF733FB0C4893
:1041B000FFF730FB0B48FFF72DFB0B4B054A1A604E
:1041C0000A4B054A1A6000BF0837BD4680BD00BFD4
:1041D00018030020A4030020B8030020D40300200B
:1041E000E803002000040020CC030020D0030020BE
:1041F00080B582B000AF19E000F02CFA104BDB68FC
:10420000DB687B607B6804331846FFF78DFB0D4B42
:104210001B68013B0B4A13600B4B1B68013B0A4AAE
:10422000136000F047FA786800F010F8064B1B683E
:10423000002BE1D100BF00BF0837BD4680BD00BFE5
:10424000E803002014040020FC03002080B584B0A3
:1042500000AF78607B6893F85130002B08D17B6801
:104260001B6B184600F09CFB786800F099FB18E087
:104270007B6893F85130012B03D1786800F090FBF4
:104280000FE07B6893F85130022B0AD04FF05003B7
:1042900083F31188BFF36F8FBFF34F8FFB6000BFB5
:1042A000FEE700BF1037BD4680BD000080B483B07C
:1042B00000AF0F4B1B681B68002B01D1012300E0EE
:1042C0000023002B04D00B4B4FF0FF321A6008E0A4
:1042D000074B1B68DB68DB687B607B685B68054AB3
:1042E000136000BF0C37BD465DF8047B704700BF0C
:1042F000CC0300203404002080B483B000AF0B4B0B
:104300001B68002B02D101237B6008E0084B1B686F
:10431000002B02D102237B6001E000237B607B68DD
:1043200018460C37BD465DF8047B7047200400201A
:104330003C04002080B584B000AF78603960294B20
:104340001B68FB60284B1B6804331846FFF7ECFA28
:104350000346002B0BD1244B1B68DB6A012202FAB7
:1043600003F3DA43214B1B681340204A13607B6838
:10437000B3F1FF3F0AD13B68002B07D01A4B1B68F3
:10438000043319461A48FFF772FA26E0FA687B6888
:104390001344BB60144B1B68BA685A60BA68FB6868
:1043A0009A4209D2134B1A680F4B1B680433194603
:1043B0001046FFF780FA10E00F4B1A680A4B1B6893
:1043C000043319461046FFF776FA0C4B1B68BA689F
:1043D0009A4202D2094ABB68136000BF1037BD463B
:1043E00080BD00BF18040020140300201C0400201E
:1043F00000040020D0030020CC030020340400205F
:1044000080B485B000AFF860B9607A60FB68043BA7
:10441000FB60FB684FF080721A60FB68043BFB6036
:10442000BB6823F00102FB681A60FB68043BFB6079
:104430000C4AFB681A60FB68143BFB607A68FB68F7
:104440001A60FB68043BFB60FB686FF002021A60B5
:10445000FB68203BFB60FB6818461437BD465DF8DF
:10446000047B70476944000880B485B000AF002326
:104470007B60124B1B68B3F1FF3F0AD04FF0500333
:1044800083F31188BFF36F8FBFF34F8FFB6000BFC3
:10449000FEE74FF0500383F31188BFF36F8FBFF334
:1044A0004F8FBB6000BF00BF7B68002BFCD000BFFC
:1044B00000BF1437BD465DF8047B70470C00002038
:1044C000074B19680868B0E8F04F80F30988BFF31C
:1044D0006F8F4FF0000080F311887047AFF30080BA
:1044E0001403002000BF00BF08480068006880F384
:1044F00008884FF0000080F3148862B661B6BFF3FD
:104500004F8FBFF36F8F00DF00BF00BF08ED00E0EB
:1045100080B586B000AF464B1B68464A93420AD12D
:104520004FF0500383F31188BFF36F8FBFF34F8FAA
:104530003B6100BFFEE73E4B1B683F4A93420AD1F6
:104540004FF0500383F31188BFF36F8FBFF34F8F8A
:10455000FB6000BFFEE7394B7B617B691B78DBB2F8
:104560007B607B69FF221A707B691B78DBB2FB7072
:10457000FB78DBB203F05003DAB2314B1A70314BE7
:1045800007221A6009E02F4B1B68013B2D4A13607C
:10459000FB78DBB25B00DBB2FB70FB78DBB203F0D5
:1045A0008003802BEFD0274B1B68C3F10703042B3C
:1045B0000AD04FF0500383F31188BFF36F8FBFF31E
:1045C0004F8FBB6000BFFEE71E4B1B681B021D4ADE
:1045D00013601C4B1B6803F4E0631A4A13607B688A
:1045E000DAB27B691A70184B1B68174A43F47003E0
:1045F0001360154B1B68144A43F07043136000F0BE
:10460000DDF8124B00221A6000F0FCF8104B1B681A
:104610000F4A43F040431360FFF766FFFFF734FD96
:10462000FFF722FF002318461837BD4680BD00BFA4
:1046300000ED00E071C20F4170C20F4100E400E0E4
:10464000400400204404002020ED00E00C00002085
:1046500034EF00E080B483B000AF4FF0500383F339
:104660001188BFF36F8FBFF34F8F7B6000BF0F4B7D
:104670001B6801330D4A13600C4B1B68012B0FD1D3
:104680000B4B1B68DBB2002B0AD04FF0500383F3B7
:104690001188BFF36F8FBFF34F8F3B6000BFFEE702
:1046A00000BF0C37BD465DF8047B70470C0000204E
:1046B00004ED00E080B483B000AF124B1B68002B08
:1046C0000AD14FF0500383F31188BFF36F8FBFF30C
:1046D0004F8F7B6000BFFEE70A4B1B68013B094A16
:1046E0001360084B1B68002B05D100233B603B681F
:1046F00083F3118800BF00BF0C37BD465DF8047B13
:10470000704700BF0C000020000000000000000007
:10471000EFF30980BFF36F8F154B1A681EF0100F6F
:1047200008BF20ED108A20E9F04F10602DE9090044
:104730004FF0500080F31188BFF34F8FBFF36F8F9E
:10474000FFF7A2FC4FF0000080F3118809BC196844
:104750000868B0E8F04F1EF0100F08BFB0EC108AE8
:1047600080F30988BFF36F8F704700BFAFF30080FD
:104770001403002000BF00BF80B582B000AF4FF02F
:10478000500383F31188BFF36F8FBFF34F8F7B60AC
:1047900000BFFFF7BBFB0346002B03D0064B4FF0D7
:1047A00080521A6000233B603B6883F3118800BF8E
:1047B00000BF0837BD4680BD04ED00E080B400AF07
:1047C0000B4B00221A600B4B00221A600A4B1B682D
:1047D0000A4AA2FB03239B09094A013B1360044BCD
:1047E00007221A6000BFBD465DF8047B704700BF1A
:1047F00010E000E018E000E000000020D34D62105F
:1048000014E000E0DFF80C00016841F47001016081
:10481000704700BF88ED00E080B58AB000AF7860D7
:104820000023FB61FFF7C8FA584B1B68002B01D12E
:1048300000F010F9564B1A687B681340002B40F0CB
:104840008E807B68002B1DD008227B6813447B6020
:104850007B6803F00703002B14D07B6823F0070369
:1048600008337B607B6803F00703002B0AD04FF00E
:10487000500383F31188BFF36F8FBFF34F8F7B61BA
:1048800000BFFEE77B68002B69D0424B1B687A684B
:104890009A4264D8404B3B623F4B1B687B6204E00A
:1048A0007B6A3B627B6A1B687B627B6A5B687A68B7
:1048B0009A4203D97B6A1B68002BF1D1334B1B68EA
:1048C0007A6A9A424BD03B6A1B6808221344FB6108
:1048D0007B6A1A683B6A1A607B6A5A687B68D21ADC
:1048E00008235B009A421FD97A6A7B681344BB6134
:1048F000BB6903F00703002B0AD04FF0500383F38A
:104900001188BFF36F8FBFF34F8F3B6100BFFEE78E
:104910007B6A5A687B68D21ABB695A607B6A7A687C
:104920005A60B86900F0F8F81A4B1A687B6A5B683D
:10493000D31A184A1360174B1A68184B1B689A420F
:1049400003D2144B1B68154A13607B6A5A68104BDC
:104950001B681A437B6A5A607B6A00221A60FFF761
:1049600039FAFB6903F00703002B0AD04FF050031C
:1049700083F31188BFF36F8FBFF34F8FFB6000BFCE
:10498000FEE7FB6918462837BD4680BD5010002061
:104990005C10002054100020481000205810002007
:1049A00080B586B000AF78607B687B617B68002B48
:1049B00048D008235B427A6913447B617B693B6181
:1049C0003B695A68214B1B681340002B0AD14FF0FA
:1049D000500383F31188BFF36F8FBFF34F8FFB60DA
:1049E00000BFFEE73B691B68002B0AD04FF0500365
:1049F00083F31188BFF36F8FBFF34F8FBB6000BF8E
:104A0000FEE73B695A68114B1B681340002B19D015
:104A10003B691B68002B15D13B695A680B4B1B681F
:104A2000DB431A403B695A60FFF7C6F93B695A6895
:104A3000074B1B681344064A1360386900F06CF892
:104A4000FFF7C8F900BF1837BD4680BD5C100020D5
:104A50005410002080B485B000AF4FF44063BB60B9
:104A6000274BFB60FB6803F00703002B0CD0FB68AF
:104A70000733FB60FB6823F00703FB60BA68FB6841
:104A8000D31A1F4A1344BB60FB687B601D4A7B68D6
:104A900013601C4B00225A607B68BA681344FB60A9
:104AA0000822FB689B1AFB60FB6823F00703FB608E
:104AB000FB68154A1360144B1B6800225A60124BA6
:104AC0001B6800221A607B683B603B68FA68D21A58
:104AD0003B685A600C4B1A683B681A603B685B681D
:104AE0000A4A13603B685B68094A1360094B4FF040
:104AF00000421A6000BF1437BD465DF8047B704762
:104B000048040020481000205010002058100020B9
:104B1000541000205C10002080B485B000AF786095
:104B2000284BFB6002E0FB681B68FB60FB681B68AE
:104B30007A689A42F7D8FB68BB60FB685B68BA6822
:104B400013447A689A4208D1FB685A687B685B68AC
:104B50001A44FB685A60FB687B607B68BB607B68BB
:104B60005B68BA681A44FB681B689A4218D1FB68F4
:104B70001A68154B1B689A420DD07B685A68FB680F
:104B80001B685B681A447B685A60FB681B681A687C
:104B90007B681A6008E00C4B1A687B681A6003E0B7
:104BA000FB681A687B681A60FA687B689A4202D0D0
:104BB000FB687A681A6000BF1437BD465DF8047B55
:104BC000704700BF481000205010002002440346E8
:104BD000934200D1704703F8011BF9E770B50D4D02
:104BE0000D4C641BA4100026A64209D10B4D0C4CA1
:104BF00000F018F8641BA4100026A64205D170BD71
:104C000055F8043B98470136EEE755F8043B9847C2
:104C10000136F2E7D04C0008D04C0008D04C000818
:104C2000D44C0008F8B500BFF8BC08BC9E467047DD
:0C4C3000F8B500BFF8BC08BC9E467047F9
:104C3C0064656661756C745461736B003C4C000860
:104C4C00C904000800000000000000008000000003
:104C5C0000000000000000006D795461736B30326D
:104C6C0000000000644C0008D9040008000000009B
:104C7C0000000000800000000000000000000000A8
:104C8C000A0D000049444C450000000000000000E3
:104C9C0000000000010203040607080900000000E0
:104CAC000102030402030405060708090A0B0C0D94
:104CBC000E0F10100102030405060708090A0B0C5D
:044CCC000D0E0F10AA
:044CD000C501000812
:044CD400A101000832
:104CD80000127A001000000001000000AAAAAAAA87
:0400000508000711D7
:00000001FF
